:020000040000FA
:1000000088080010C9010000D1010000D3010000E0
:10001000D5010000D7010000D90100000000000058
:10002000000000000000000000000000DB010000F4
:10003000DD01000000000000DF010000E101000020
:10004000E3010000E3010000E3010000E301000020
:10005000E3010000E3010000E3010000E301000010
:10006000E3010000E3010000E3010000E301000000
:10007000E3010000E3010000E3010000E3010000F0
:10008000E3010000E3010000E3010000E3010000E0
:100090001B150000BD110000E3010000E30100009A
:1000A000E3010000E3010000E3010000E3010000C0
:1000B000E3010000E3010000E3010000E3010000B0
:1000C000E3010000E3010000E301000000F002F89A
:1000D00000F06AF80AA090E8000C82448344AAF178
:1000E0000107DA4501D100F05FF8AFF2090EBAE876
:1000F0000F0013F0010F18BFFB1A43F0010318475C
:100100000C5500002C5500000A444FF0000C10F86C
:10011000013B13F0070408BF10F8014B1D1108BF85
:1001200010F8015B641E05D010F8016B641E01F825
:10013000016BF9D113F0080F1EBF10F8014BAD1C75
:100140000C1B09D16D1E58BF01F801CBFAD505E093
:1001500014F8016B01F8016B6D1EF9D59142D6D3ED
:10016000704700000023002400250026103A28BF15
:1001700078C1FBD8520728BF30C148BF0B60704719
:10018000662905F05880642901F0FA820020704742
:100190001FB501F0E5FD04000020002103F030FF51
:1001A000E0601FBD10B510BD01F0DEFE1146FFF787
:1001B000EFFF01F0CBF901F0FCFE03B4FFF7F2FF13
:1001C00003BC01F03DFF0000094880470948004793
:1001D000FEE7FEE7FEE7FEE7FEE7FEE7FEE7FEE7F7
:1001E000FEE7FEE704480549034A054B7047000057
:1001F000A9040000CD000000880600108808001047
:100200008806001053EA020C00F069802DE9F04BDB
:100210004FF00006002B1FBFB3FA83F503FA05F475
:1002200024FA05F65E4012BF1643B2FA82F502FACE
:1002300005F4C5F120051EBF22FA05FC44EA0C04B2
:10024000203556EA044C4FEA144418BF641C4FF0A2
:1002500000084FF00009904271EB030C39D30029DC
:1002600019BFB1FA81F701FA07F6B0FA80F700FA80
:1002700007F6C7F120071EBF20FA07FC46EA0C0666
:100280002037B6FBF4FCA7EB0507103F07F01F0B68
:10029000CBF120060CFA0BFB2CFA06F644BFB34652
:1002A0000026202FA4BF5E464FF0000B5BEA060C31
:1002B00008BF4FF0010B19EB0B09ABFB027C48EBBD
:1002C0000608C01B06FB02CC0BFB03CC71EB0C0138
:1002D000C1E70B46024641464846BDE8F08B13B5E0
:1002E0004FF000004FF00001AFF30080BDE81C406C
:1002F000704770477047704770470000FFFFFFFF6F
:100300002DE9F04781480068C0F3016003287CD1E3
:100310007F48006810F0030006D0012833D002287F
:100320005FD003282ED100E000BF78480068C0F3FA
:10033000074000F101044FF002017648D0F8880030
:10034000C0F30E0000F10100A1FB0001724B4FF061
:10035000000CA0FB037901FB039100FB0C1122466A
:1003600063463846FFF74EFF05466C480068C0B24A
:1003700000F1010422464FF000032846FFF742FF38
:10038000674908605DE061480068C0F3074000F11C
:1003900001044FF002015F48D0F88800C0F30E005E
:1003A00000F10100A1FB00105E4A4FF0000CA1FB20
:1003B000027900FB029001FB0C012246634638469D
:1003C000FFF720FF054655480068C0B200F1010460
:1003D00022464FF000032846FFF714FF50490860FB
:1003E0002FE04A480068C0F3074000F101044FF0D5
:1003F00002014848D0F88800C0F30E0000F1010067
:10040000A1FB00124FF4004000E01BE04FF000039E
:10041000A1FB007902FB009001FB03012246384654
:10042000FFF7F0FE05463D480068C0B200F1010448
:1004300022464FF000032846FFF7E4FE38490860E3
:1004400000BF2FE03248006810F0030006D00128FA
:1004500010D0022819D0032823D100E000BF2F4874
:100460000068C0B200F101002B49B1FBF0F02C494B
:10047000086016E029480068C0B200F1010029496F
:10048000B1FBF0F0264908600BE024480068C0B2D8
:1004900000F101004FF40041B1FBF0F02049086089
:1004A00000BF00BFBDE8F08720201F490860194841
:1004B000D0F8A00110F0200F05D000BF1A48006846
:1004C00010F0400FFAD00320144908601748114972
:1004D000C1F8A8011648174908604FF001000C49FF
:1004E00008604FF00400A1F10401086012481349AC
:1004F000086040F201100749C1F8C80108460068C9
:1005000020F4704040F480400860704788C00F407D
:100510000CC10F4000C00F4000093D0004C10F4056
:1005200000000010001BB700A0C10F4055515155ED
:1005300055545554ACC10F40DEF7EFE7C4C00F402F
:10054000FB490968491CFA4A1160FA4A505470473D
:10055000F9490968491CF84A1160F84A5054704733
:10056000F54801680068401EF34A1060F348405C9B
:100570007047EF4801680068401EED4A1060ED4882
:10058000405C7047002100E0491C8142FCD3704769
:100590006FF0FC50EA4908614FF0F060C8614FF01D
:1005A0000060C8614000C861704700B56FF0FC5042
:1005B000E3490861FFF7ECFFE2480068E049486161
:1005C0004FF00060C861400088611920FFF7DAFF32
:1005D0004FF08050DA49C86100BD00B56FF0FC50A3
:1005E000D7490861D848007800F0F000D549086084
:1005F00008460088C0040860FFF7D7FFD24800789B
:1006000000F00F00CF49086008460088C005086068
:10061000FFF7CBFF4FF47A70FFF7B4FF00BD00B5D2
:10062000CA484068CA490840C84948606FF0FC5051
:10063000C34908610846006840F0F0600860084659
:10064000006840F0006008600846006840F0805094
:100650000860FFF79DFF4FF44860FFF793FF4FF0EE
:10066000C070B8490860FFF7A0FF40F6B830FFF748
:1006700089FF4FF0C070B3490860FFF796FF40F65E
:10068000B830FFF77FFF4FF0C070AE490860FFF74A
:100690008CFF40F6B830FFF775FF4FF08070A94926
:1006A0000860FFF782FF4FF47A70FFF76BFF282096
:1006B000A5490860FFF791FF40F6B830FFF762FFE9
:1006C0000C20A1490860FFF788FF4FF44870FFF73E
:1006D00059FF06209C490860FFF77FFF4FF44870E0
:1006E000FFF750FF012098490860FFF776FF4FF4AD
:1006F0007A70FFF747FF802093490860FFF76DFF8E
:100700004FF44870FFF73EFF00BD00B56FF0FC509E
:100710008B490861FFF73CFF8A48006888494861B7
:100720004FF000608861400088611920FFF72AFFC0
:100730004FF080508249C86100BD00B56FF0FC5099
:100740007F4908618048007800F0F0007D4908602A
:1007500008460088C0040860FFF7D7FF7A48007891
:1007600000F00F007749086008460088C00508605F
:10077000FFF7CBFF4FF47A70FFF704FF00BD00B521
:100780006FF0FC506E49086101206F490860FFF767
:1007900024FF4FF49670FFF7F5FE00BD00B5034649
:1007A000FFF7EDFF00206B49086014E0694800681E
:1007B000185C65490860FFF7C0FF66480068401C88
:1007C0006449086008460068102804D1C0205E49CA
:1007D0000860FFF702FF5F480068185C0028E5D159
:1007E0005D49086004E05C480068401C5A490860A4
:1007F0005948006848F6B8018842F4D300BD57480C
:1008000001680068401E554A1060554850F82100A4
:10081000704752490968491C504A1160504A42F8D1
:10082000210070472DE9F04F85B04FF0000AB5E187
:100830004C4810F80A0039280FDC4A4810F80A0022
:1008400030280ADB474810F80A003038464951F88A
:1008500020301846FFF7DDFF9EE1444800786C2801
:100860001FD1FFF7CCFF03906120404908700020A2
:100870004FF0804102F062FCCDE90001039804F0E2
:10088000FDF9064602F05AFC8046DDE9002303F03C
:10089000BBFC044603F0CAFB83465846FFF7B9FF8A
:1008A0007AE13248007873281ED1FFF7A8FF039041
:1008B00061202E490870039804F0E0F980462C4A24
:1008C0002C4B03F0CBFE00222B4BCDE9000103F0B3
:1008D0009BFC064603F0DAFA044603F0A7FB8346C6
:1008E0005846FFF796FF57E120480078632845D126
:1008F000FFF785FF039061201C490870039804F0FE
:10090000BDF906461A4A1B4B03F0A8FE804600229A
:10091000194B03F079FCCDE9000102F0B9FB044664
:1009200003F084FB83465846FFF773FF34E1000071
:10093000040000102C01001018000010C20100106B
:1009400000C00920100100100C01001000C002407E
:10095000FF3F00FC2C000010FC00001014000010F1
:10096000A00200103A020010300400105E010010D6
:1009700054E3A59BC420094000806640F9480078F4
:1009800074281ED1FFF73BFF03906120F5490870E2
:10099000039804F073F98046F34AF44B03F05EFECB
:1009A0000022F34BCDE9000103F02EFC064603F0D4
:1009B000EDFA044603F03AFB83465846FFF729FF59
:1009C000EAE0FFF71CFF0390FFF719FF0290E948E8
:1009D00010F80A0063287DD00CDC2D281CD004DC24
:1009E0002A2822D02B2816D10DE02F2826D05E28C9
:1009F000F9D12CE06C2859D072283DD0732876D0DC
:100A00007428F0D1ABE0DDE9020104F063F983461C
:100A10005846FFF7FEFEBEE0DDE9020104F096FB5A
:100A200083465846FFF7F5FEB5E0DDE9020104F024
:100A3000C1FA83465846FFF7ECFEACE0DDE902015F
:100A400004F0AAF983465846FFF7E3FEA3E00398B3
:100A500004F014F906460F46029804F00FF9804698
:100A600032463B4602F022FD044603F0DFFA83469D
:100A70005846FFF7CEFE8EE04FF07E50039904F00B
:100A80008BF9019004F0FAF880468946029804F048
:100A9000F5F8064642464B4602F008FD044603F0D0
:100AA000C5FA83465846FFF7B4FE74E000204FF0C5
:100AB000804102F043FB06460F46039804F0DEF83F
:100AC000CDE9000102F03AFB804632463B4603F096
:100AD0009BFB01E027E00AE0044603F0A7FA834607
:100AE0000298FFF796FE5846FFF793FE53E00398EF
:100AF00004F0C4F89C4A9D4BCDE9000103F0AEFD23
:100B0000064600229A4B03F07FFB044603F0BEF931
:100B1000804603F08BFA83460298FFF77AFE584628
:100B2000FFF777FE37E0039804F0A8F88E4A8F4B62
:100B3000CDE9000103F092FD064600228C4B03F044
:100B400063FB044602F0A4FA804603F06FFA834682
:100B50000298FFF75EFE5846FFF75BFE1BE0039826
:100B600004F08CF88046804A804B03F077FD0646FF
:100B700000227F4B03F048FB044603F007FACDE95F
:100B8000000103F053FA83460298FFF742FE5846ED
:100B9000FFF73FFE00BF00BF0AF1010A754800F0F1
:100BA0002BFE50453FF644AEFFF729FE0490049813
:100BB00004F064F8044622460B466FA16F4800F02B
:100BC00097FD6E4800F018FE6D4908600846006801
:100BD000001F086000206B49086008600CE067484F
:100BE00068490968405C6849664A126888546548E3
:100BF0000068401C634908606248006860490968F1
:100C00008842ECDB002060495E4A1268885408463E
:100C1000FFF7C4FD05B0BDE8F08F5C480068401CDC
:100C200001D1012070470020FCE7014608465E29FB
:100C300024D00BDCA0F125000B2827D2DFE800F040
:100C40001C262615261A172618261B00722816D0D1
:100C500006DC632817D0682814D06C2816D110E061
:100C600073280DD0742811D10EE00020704700BF0A
:100C70000120FBE700BF00BF0220F7E700BF00BF75
:100C800000BF00BF00BF00BF0420EFE70020EDE77A
:100C90002DE9F0410024002683E03248855D5E2D79
:100CA00032D009DCA5F12800082873D2DFE800F073
:100CB000131A2A287229722B722D26D006DC632D76
:100CC00027D0682D23D06C2D64D11FE0732D1FD049
:100CD000742D5FD11EE0284604F058F98046FFF7D6
:100CE00098FD5CE003E02046641C22490F54FFF7A6
:100CF00086FD804604F012F9C7B2282FF3D14EE0EA
:100D000000BF00BF00BF00BF00BF00BF00BF00BFEB
:100D100000BF00BF09E0FFF772FD804604F0FEF857
:100D2000C2B22046641C13490A54FFF776FF88B903
:100D30001749164A126851F8220004F0EFF800F043
:100D4000FF084046FFF771FF02462846FFF76DFF98
:100D50008242E0DA284604F019F98046FFF759FD8F
:100D60001DE017E05E01001054E3A59BC42009407C
:100D7000008066403A02001025660000D60100108F
:100D800008000010C8000010C0050010140000107A
:100D9000A00200102046641CFA490D5400BF00BF99
:100DA000761CF94800F028FDB0423FF676AF09E026
:100DB000FFF725FD804604F0B1F8C2B22046641C5E
:100DC000F0490A54FFF729FF0028F1D00020ED492F
:100DD0000855BDE8F0812DE9F05F4FF001080024CF
:100DE000002700250026A346A146A24600BF0CE12D
:100DF000E648005D302814DBE448005D392810DC4B
:100E0000E249095DA1F1300020B907FB08F74FF076
:100E1000010A01E000FB087708EB88014FEA41086E
:100E2000F2E0DA48005D2B2817D0D848005D2D2865
:100E300013D0D648005D2A280FD0D448005D2F2853
:100E40000BD0D248005D5E2807D0D048005D7228E4
:100E500003D0CE48005D00284ED14FF00108601E3F
:100E6000CA49085C29283CD0BAF1010F22D00CE015
:100E700009EB89004FEA40090A2097FBF0F100FBDB
:100E8000117081440A2097FBF0F7002FF0D14846FB
:100E900004F064F8BE4941F8250005F13000C2B203
:100EA0003046761CB8490A54B848025D3046761C74
:100EB0000A5411E0384604F051F8B54941F82500CC
:100EC00005F13000C2B23046761CAF490A54AF4833
:100ED000025D3046761C0A546D1C0027B946BA469E
:100EE00092E0AA48025D3046761CA7490A546D1C60
:100EF0000027B946BA4687E0A448005D282806D1F5
:100F0000A248025D3046761C9F490A547CE09F4807
:100F1000005D292816D1384604F020F89C4941F894
:100F2000250005F13000C2B23046761C96490A54BD
:100F30009648025D3046761C0A546D1C0027B9465F
:100F4000BA4661E09148025D3046761C8E490A54EB
:100F5000641C4FF0010811E08C49095DA1F13000DB
:100F600020B907FB08F74FF0010A01E000FB087702
:100F700008EB88014FEA4108641C00BF8348005D0C
:100F8000302803DB8148005D3928E5DDBAF1010F27
:100F900022D00CE009EB89004FEA40090A2097FBB8
:100FA000F0F100FB117081440A2097FBF0F7002F4D
:100FB000F0D1484603F0D2FF754941F8250005F10C
:100FC0003000C2B23046761C6F490A546F48025D49
:100FD0003046761C0A5412E0384603F0BFFF6C49D5
:100FE00041F8250005F13000C2B23146761C664852
:100FF00042546648025D3046761C63490A546D1CB3
:101000004FF000090027BA46641C604800F0F4FB6A
:10101000A042BFF4EDAEBDE8F09F30B585B0044608
:10102000012501205B49086007E05A4800684543F4
:1010300058480068401C5749086056480068A0425C
:10104000F3D92A4654A1684600F052FB6846FFF7E0
:10105000A5FB05B030BDF0B585B0044600250126DE
:101060000DE0204604EBD0714910A4EB410704EBDE
:10107000D4714C1007FB065506EB86004600002C89
:10108000EFD12A4644A1684600F032FB6846FFF7DC
:1010900085FB05B0F0BD70B586B00446002501267D
:1010A0000EE0E11704EB5171C910A4EBC10101FB83
:1010B0000655E11704EB5171CC1006EB8600460093
:1010C000002CEED12A4634A101A800F011FB01A8A2
:1010D000FFF764FB06B070BDF0B599B00646002777
:1010E00034461CE02046E11704EB11710911A4EB12
:1010F00001150A2D07DA05F13000C2B238467F1C0F
:101100000DF8002006E005F13700C2B238467F1C1A
:101110000DF800202046E11704EB11710C11002C92
:10112000E0D16846FFF73AFB19B0F0BD6FF0F00070
:101130001A4908610846406919490860084600785C
:1011400000F0F000086008460068D0B101201549A1
:10115000086013480068102803D100201249086075
:101160002BE00F480068202803D101200E490860B9
:1011700023E00B480068402818D102200A49086083
:101180001BE01AE03A0200105E0100102C01001072
:10119000300400102C0000102564000000C009205D
:1011A00014010010F8000010E8000010FE4800686C
:1011B000802802D10320FD490860704710B5002047
:1011C000FB49086004E0FA480068401CF8490860E0
:1011D000F7480068B0F57A7FF5D36FF47060F54991
:1011E0000861C043C8610020F349086085E1F24806
:1011F000006820B94FF48070F049086017E0EE48AD
:101200000068012803D14002EC4908600FE0EA4879
:101210000068022803D14002E849086007E0E64878
:101220000068032803D14FF40060E44908606FF4BC
:101230007060E0490861E148006848610020E049C9
:101240000860FFF773FFD848007800F0F000D64937
:101250000860DB48006801287DD1DA480068012871
:101260000BD1D948D449096800EB0110CF4909686E
:1012700010F82100D54908700DE0D248006850B937
:10128000D348CD49096800EB0110C849096810F836
:101290002100CE490870CD4800783D285FD1CD4867
:1012A000006801281FDBCC480068012806D002280E
:1012B00009D003280CD0042814D10EE0C7480068D8
:1012C000FFF70AFF0EE0C5480068FFF7E4FE09E0FB
:1012D000C3480068FFF7BFFE04E0C1480068FFF79D
:1012E0009CFE00BF1FE0FFF776FDFFF7D1FCFFF784
:1012F00099FA0020AE49086004E0AD480068401C3F
:10130000AB490860AA480068B6498842F5D306E0B0
:101310000020B549B54A12688854FFF72AF9B34846
:101320000068401CF4D10020A149086004E0A048F6
:101330000068401C9E4908609D480068A949884291
:10134000F5D3FFF71CFA8020A9490860FFF745F99B
:101350004FF4487000E0CBE0FFF714F9C8E09B4879
:101360000078622816D100209F49A04A126888544C
:10137000FFF7FFF89F480068401E9E490860202143
:101380009D489C4A12688154FFF7F9F99648FFF787
:1013900005FAB7E08D48007868280BD08B480078B4
:1013A000662807D0894800786F2803D087480078DE
:1013B0007A2827D187480068401C864908608348FE
:1013C0000078FFF7C5F88D48FFF7E8F97F48007807
:1013D000662812D0682804D06F2806D07A2810D149
:1013E00007E001207C4908600BE002207A49086090
:1013F00007E003207849086003E00420764908608C
:1014000000BF75E073480068012822DB00206849AE
:1014100008600DE07A4866490968405C6B490978C4
:10142000884200D108E062480068401C60490860BA
:101430005F4800680A28EDD300BF5D48006868492E
:10144000086062480078FFF783F86C48FFF7A6F958
:101450004EE05C480068012823D15B485649096882
:1014600000EB01105149096810F821006249614AF6
:101470001268885454485049096800EB01104B49E0
:10148000096850F821005F4908600878FFF758F8AC
:101490005548FFF783F957480068401C55490860D4
:1014A00030E04848006818BB49484349096800EBE8
:1014B00001103E49096810F821004F494D4A126851
:1014C000885443483C49096800EB011037490968D2
:1014D00050F821004B4908600878FFF731F842487E
:1014E000FFF75CF943480068401C4249086009E086
:1014F00031480068401C304908602F4800680428C3
:10150000FFF675AE00BF6FF470602A490861C043F2
:101510004861F0203C49086010BD04203B49086048
:101520006FF4C030234908612648006830B90120B3
:1015300024490860C0031F49486106E00020214992
:1015400008604FF480301B494861704710B5FEF7C2
:10155000ABFFFEF7D5FEFFF762F82D48154908618D
:101560002C48006820F47F602A4908601148006810
:1015700040F470600F4908600846406940F47060AC
:10158000486125A0FFF70AF9152000F095F80948F1
:10159000006840F00110074908604FF080701D4955
:1015A00008610420194941E014010010E80000100E
:1015B0002C00001000C00920EC00001008010010F1
:1015C000F8000010F0000010380000102501001095
:1015D00078000010D0000010CC00001010000010A7
:1015E0000C00001020A107002C01001004000010C6
:1015F0000C0100100401001021010010C2010010B4
:10160000B8000010280100108C80024040C10F403B
:101610000F70FEFF00C00240456E74657220457871
:101620007072657373696F6E00000000086028496E
:10163000C1F84801274908604FF0140000F03CF859
:10164000F0202549C1F8900007E0244800680128EF
:1016500003D100202249086000E0F6E700BF002027
:101660001E490860FFF78BF84FF46170FEF78AFFA0
:101670001AE004E019480068012800D100E0F9E709
:1016800000BF18480068401C164908600020134934
:101690000860FFF774F8802013490860FEF79DFF8B
:1016A0004FF44870FEF76EFF0E4800680F49096856
:1016B0008842DED3002010BD00F01F0201219140BE
:1016C00042094FF0E02303EB8202C2F80011704799
:1016D00000C00F404CC10F400080024024000010A9
:1016E00020000010280000100C0100100001001064
:1016F0000FB41CB5074B06AA7B44694600900598B9
:1017000000F015FB0020694600F024FB1CBC5DF8CE
:1017100014FB0000590600002DE9F0410E46044676
:10172000002020622046E168884730B3252805D094
:10173000D4E901219047206A401CF2E7E168204685
:1017400000278847050018D0A5F14100192802D8C4
:1017500020354FF400673246294620462760FEF7C1
:101760000FFD40B1012804D0F61D26F0070608360B
:10177000D8E7361DD6E72846DAE7206ABDE8F081CB
:101780002DE9F0410646002410687529314616A55A
:1017900011D0AFF30080002803DAC0F1000013A5D8
:1017A00007E031688A0701D511A502E0490704D591
:1017B00010A5012401E0AFF3008000210A2306F107
:1017C000240707E0B0FBF3F203FB1200303078543B
:1017D0001046491C0028F5D123462A463046BDE86C
:1017E000F04100F033B80000000000002D000000C0
:1017F0002B0000002000000010B5431C02E010F890
:10180000011B71B18107FAD14FF0013202C88C1A65
:101810008C4314EAC211F9D0C01A0A0603D0C01EC4
:1018200010BDC01A10BD0A0401D0801E10BD0902EF
:10183000FCD0401E10BD10B500F096FA006810BD37
:1018400010B5044600F090FA046010BD2DE9F04791
:101850000D4699469246044600F124080168880620
:1018600004D5E06921F01001216000E00120A842C8
:1018700002DDA0EB050700E00027A16907EB0502E8
:1018800002EB0900A1EB0000A0612078C00602D4A1
:101890002046AFF30080002608E0D4E901211AF8C1
:1018A00006009047206A401C761C20624E45F4DBFF
:1018B0002078C0060AD52046AFF3008006E0D4E9C0
:1018C000012130209047206A401C2062381EA7F179
:1018D0000107F4DC07E0D4E9012118F8050090477E
:1018E000206A401C2062281EA5F10105F3DC204679
:1018F000AFF300802078000602D50220BDE8F08713
:101900000120FBE770472DE9FF4F0C461E464FF0C4
:10191000FF378BB0D2E90001DDF860800A908A467B
:10192000C1F30A5505B93D46002108464FF00000B5
:10193000BAF1000F00F4400005DA00EB80004FF42C
:10194000400101EA50004FEA9059B9F1010F00DD62
:10195000B9460A9850EA4A000ED044F61050A5F253
:10196000FF3545432F14B8F1000F1ED07542291ED4
:101970001EDDC9F100021CE0B8F1010F4FF00000BC
:1019800001D0302103E0F24305E02154401CB04275
:10199000FBDB30460022002121540B99C1F808805E
:1019A000C1E900200FB0BDE8F08FBD1B6D1CDEE764
:1019B0004A4600DA694206A800F060FA06AB07CB97
:1019C00003AB07C350460A9900F040FB8DE80700BF
:1019D000A0F500501F3800900398002D09DD42F259
:1019E0001F014A46084403A90390684600F09FFD82
:1019F00008E0A0F500504A461F3803A90390684646
:101A000000F0A9FD8DE807000004000C03D04FF0A2
:101A1000FF30410800E01046B8F1000F03D000226B
:101A2000009215461FE0751E06D400F0A1F902F1E0
:101A3000300262556D1EF8D5B3460122084302D02C
:101A400000227F1C04E02078302801D100227F1E74
:101A5000002A099787D01DE0112D07DA00F088F9D8
:101A6000303262556D1C50EA0102F5D108430FD1A6
:101A70000021681E05E0235C625C6354491C22540B
:101A8000401E8142F7DBAB46A81B401E099001E0D7
:101A9000009848B1002004F80B000B98099AC0F890
:101AA0000880C0E9002B7DE711264FF000085AE7B7
:101AB0002DE9F04F88460446D21D22F0070191B06F
:101AC000D1E90001CDE90A0100F07BFE02460B9846
:101AD000C00F01D02D2007E02068810701D52B2001
:101AE00002E0202101EAC000032A099001D0072A60
:101AF00005DB03464146204600F080F90FE12078DF
:101B0000800601D5E06900E00620B8F1650F814646
:101B100006D0B8F1660F18D0B8F1670F72D132E075
:101B20000020B9F1110F009001DB112301E009F150
:101B300001030AAA01A90CA8FFF7E5FEDDE90C7074
:101B4000002609F10105834648E001204B4600903C
:101B50004FF000470AAA01A90CA8FFF7D4FEDDE95F
:101B60000DB00C995D46002618B909F1010001EB92
:101B70000005B9EB050003D4C0F1FF3609F10105FA
:101B8000A5EB09002BE0B9F1010F01DA4FF00109D3
:101B90000020B9F1110F0090484601DD112300E04B
:101BA00003460AAA01A90CA8FFF7ADFEDDE90C70F7
:101BB0004D4600268346207800070AD4AB4500DA5C
:101BC0005D4601A8012D04DD411911F8011C3029E1
:101BD00007D04F4502DA17F1040F04DA01208246DC
:101BE00010E06D1EEEE7002F02DCED1B3E4403E02B
:101BF000781CA84200DD0546A7EB060000F1010AAB
:101C00004FF000472078000703D4AA4501DB4FF0CE
:101C1000FF3A0021B7F1004F0DF143088DF8431052
:101C200023D002202B23002F01DA7F422D234FF0F7
:101C30000A0C011EA0F1010000DC4FB197FBFCF182
:101C40000CFB11720F4602F1300208F8012DF0E78B
:101C5000A8F1010003702188090501D5452100E0A4
:101C60006521A0F1010800F8011C09980FA9A1EB5A
:101C7000080707F1070700B1012000EB050101EBA0
:101C8000EA70A1693844A1EB0000A0F10100A06155
:101C90002078C00602D42046AFF30080099830B106
:101CA000D4E901219047206A00F1010020622078E8
:101CB000C00620D52046AFF300801CE0002E04DBD8
:101CC000B34502DD01A8805D00E03020D4E90121A8
:101CD0009047206A761C401CBAF1010A20620AD1A2
:101CE00000F03EF8C0680168405CD4E901219047EB
:101CF000206A401C2062281EA5F10105DEDC07E0F9
:101D0000D4E9012118F8010B9047206A401C206299
:101D1000381EA7F10107F3DC2046AFF30080022054
:101D200011B040E601694A1C02610878704700B5AD
:101D30008FB0CDE901310021059105497944CDE904
:101D4000031011466846FFF7E7FC0FB000BD000026
:101D5000E5FFFFFF0A6802F8010B0A607047000008
:101D600000487047440600100048704724060010E1
:101D700030B5B0F10A024FEA900E71F100034EEA5D
:101D8000817EB0EB0E0061EB91014FEA101E4EEA2E
:101D9000017E10EB0E0041EB11114FEA102E4EEABE
:101DA000016E10EB0E0041EB11214FEA104E4EEA8E
:101DB000014E10EB0E0041EB1141401841F10001C2
:101DC0004FEAD00040EA41704FEAD10110EB8005A4
:101DD0004FEA810444EA907444EB01046D1944EB2A
:101DE0000404521BA3414FF0000348BF0A3200D540
:101DF00030BD401C41F1000130BD00002DE9F04133
:101E00001F46044603260168072A01F4006004DB2C
:101E100008B116A505E016A503E008B115A500E078
:101E200015A521F010002060A069C01EA0610FB1AF
:101E3000401EA0612046AFF300804FB1D4E90121DC
:101E400038469047206A401C2062C01C206206E091
:101E5000206AFAE7D4E9012115F8010B9047761EB4
:101E6000F8D22046AFF30080BDE8F0814E414E002D
:101E70006E616E00494E4600696E66002DE9F047BE
:101E8000814616468AB035487844D0E900238068F8
:101E90000092CDE90130314878440C38D0E9022372
:101EA000006903924FF03702CDE9043041F69B30D0
:101EB000014491FBF2F0A0F1800502FB10141B3CE1
:101EC00002D56442012000E00020DFF890A08046A7
:101ED0000027FA44AAF1C60A0DE0E00709D032460D
:101EE000684607EB47010AEB810100F034FB8DE8FF
:101EF000070064107F1C002CEFD1184F7F44B43FC3
:101F000017E0E80713D007EB04100DF1180A90E86A
:101F10000E00AAE80E00C068F04201D1981908909E
:101F2000324606A903A800F016FB03AB07C36D10E9
:101F3000641C002DE5D132466946B8F1000F03A8B4
:101F400002D000F0F4FA01E000F005FBC9E900015D
:101F5000C9F808200AB0BDE8F08700006837000023
:101F600000487047240600107546FFF7F9FFAE469B
:101F700005006946534620F00700854618B020B595
:101F8000FEF730F9BDE820404FF000064FF00007A3
:101F90004FF000084FF0000B21F00701AC46ACE811
:101FA000C009ACE8C009ACE8C009ACE8C0098D467E
:101FB00070470446AFF300802046FEF7FEF80000AD
:101FC0004FF0013C50F8042B51F8043B9A4221D1C8
:101FD000A2EB0C03934313EACC1317D150F8042B54
:101FE00051F8043B9A4215D1A2EB0C03934313EA38
:101FF000CC130BD150F8042B51F8043B9A4209D171
:10200000A2EB0C03934313EACC13DBD04FF0000098
:10201000704700BFD01A01BAB1FA81F101F018017E
:1020200022FA01F0CB40C1F12001DBB2C0B2C01AEC
:102030002CFA01F3D11A914311EAC311E6D170478A
:1020400001491820ABBEFEE7260002005FEA400C03
:1020500008BF91F0000F4FEA8C234FEAC12243EAF8
:1020600051514FEA1C5018BF00F5F0404FEA3000C4
:1020700018BF41F000415FEA6C5C00F02980BCF1C0
:10208000FF3F08BF40F080407047130C06BF1204AA
:102090004FF0100C4FF0000C130E04BF12020CF1A5
:1020A000080C130F04BF12010CF1040C930F04BFB2
:1020B00092000CF1020CD30F04BF52000CF1010C82
:1020C00011464FF00002A0F11F00A0EB0C0070477A
:1020D00011F0004F08BF704731F000413FF4D5AF19
:1020E0000B0C06BF09044FF0100C4FF0000C0B0E48
:1020F00004BF09020CF1080C0B0F04BF09010CF11D
:10210000040C8B0F04BF89000CF1020CCB0F04BF31
:1021100049000CF1010CCCF12003A0EB0C0022FAD9
:1021200003F302FA0CF241EA030100F101007047E7
:1021300020F07F4C80EA030023F07F47ACEB0703DD
:1021400003F57C5300F0004003F1FF032DE98049C3
:102150004FEA154B09B44FEA144325EA0B4E24EA23
:1021600003480FF2042606EB132749083E785FEA7E
:10217000320203FB0667C7F5000707FB06F64FEAC6
:1021800054374FEAD64606F1020607FB066CCCF13F
:10219000005C4FEA1C472CEA074C07FB06F40CFBDB
:1021A00006F504EB15464FEA961634BF00204FF0B3
:1021B00000404FEAD13706FB07FC4FEA1C4C0CFBF2
:1021C0000BF7D21B03FB0CF761EB07010CFB0EF7BF
:1021D000B0EB074072EB17420CFB08F734BFA2EBE1
:1021E0000742B2EB074261EB17414FEA0C444FEA5A
:1021F000910706FB07FC4FEA1C4C0CFB0BF7B0EBFE
:10220000C74072EB573203FB0CF734BFA2EBC74257
:10221000B2EBC74261EB57310CFB0EF7B0EBC700D6
:1022200072EB57720CFB08F734BFA2EBC702B2EB9C
:10223000C70261EB5771039F4FEA816141EA921136
:1022400004EBCC044FEAD1374FEA826206FB07FC6D
:1022500042EA90124FEA80604FEA1C4C0CFB0BF7ED
:10226000D21B03FB0CF761EB07010CFB0EF7B0EB85
:10227000074072EB17420CFB08F734BFA2EB074292
:10228000B2EB074261EB17414FEA8C554FEA9107D9
:1022900004EB9C2406FB07FC4FEA1C4C0CFB0BF7E1
:1022A000B0EBC74072EB573203FB0CF734BFA2EB25
:1022B000C742B2EBC74261EB57310CFB0EF7B0EBF4
:1022C000C70072EB57720CFB08F734BFA2EBC702D2
:1022D000B2EBC70261EB577115EB4C254FEA8161F8
:1022E00041EA92114FEA82624FEAD13742EA9012F4
:1022F00006FB07FC44F100044FEA80604FEA1C4CE7
:102300000CFB0BF7D21B03FB0CF761EB07010CFB7B
:102310000EF7B0EB074072EB17420CFB08F734BF27
:10232000A2EB0742B2EB074261EB174115EB1C151C
:102330004FEA813141EA92414FEA823242EA9042C9
:102340004FEA80304FEA0C7644F1000448EA034338
:102350004EEA0B484FF0000EB2EB080C71EB03078E
:1023600024BF624639464EEB0E0E4FF0000B0018AC
:10237000524149414BEB0B0BB2EB080C71EB0307DD
:102380007BF1000B24BF624639464EEB0E0E4FF038
:10239000000B0018524149414BEB0B0BB2EB080C00
:1023A00071EB03077BF1000B24BF624639464EEB0D
:1023B0000E0E51EA020718BF46F0010616EB0E7624
:1023C00055F1000254F1000103D5BDE88901BDE8D3
:1023D0000088BDE88901BDE80048B619524141EBCB
:1023E0000101A3F10103704780807F7E7D7C7B7AB1
:1023F0007978777676757473727171706F6E6E6DB1
:102400006C6C6B6A6A696868676666656464636356
:1024100062616160605F5F5E5E5D5D5C5C5B5B5ADC
:102420005A59595858575756565555555454535349
:1024300052525251515050504F4F4F4E4E4D4D4DA4
:102440004C4C4C4B4B4B4A4A4A49494948484847EF
:10245000474747464646454545444444444343432D
:102460004342424242414141002B26D4770021D0D1
:102470001CB54FEA370703B44FF010004FF01001BE
:102480004FF000000FBCBDE810400BF1010BBBF199
:10249000010F08BF5FEA170722BF12F1010211F115
:1024A00001014FF0004143F1000300F0004043EA16
:1024B00000007047F9D35708DAE746EA064613F1F9
:1024C000400F4FEA16461FDD13F1200FDFBF164302
:1024D0000A46002120335B42C8D0C3F1200746EAF8
:1024E000064602FA07F74FEA164646EA0706C3F120
:1024F000200722FA03F201FA07F721FA03F14FF05D
:10250000000342EA0702B1E746EA020646EA064647
:102510004FEA164646EA0106BCBF46EA0646360CB6
:102520004FF000034FF000024FF000019EE72DE94D
:10253000C048934630B491E8380007C831EA400CEF
:1025400048BF34EA430C03D5FFF7F2FDFFF78CFFD9
:10255000F0BCBDE800882DE9C048934630B491E84E
:10256000380007C810F0804F08BF13F0804F03D128
:1025700000F005F8FFF778FFF0BCBDE8008820F018
:102580007F4780EA030023F07F4C07EB0C03A3F5A1
:102590007C5300F00040A3F1FE0392F0000F00F026
:1025A000B38095F0000F00F077802DE901494FEAE4
:1025B00011404FEA144621EA004800FB06FC24EAD9
:1025C000064708FB06F607FB08F800FB07F718EBC1
:1025D00006484CEB164C4FEA124B18EB07484FEAF3
:1025E00015464CEB174022EA0B4E0BFB06FC25EA86
:1025F00006470EFB06F607FB0EFE0BFB07F71EEB6E
:10260000064E4CEB164C4FF000061EEB074E4CEB03
:10261000174B18EB0B0840F1000018EB0E0B58EBB2
:10262000000840F100008F1A4FF000013CBFC94381
:10263000661B14BFB5EB040C00213CBFC943F61B5D
:102640004FEA17444EEA8E0E27EA04454FEA1C472C
:1026500004FB07622CEA074C05FB07F70CFB05F6A9
:1026600004FB0CFC16EB074642EB174216EB0C463C
:1026700042EB1C421BEB060658EB0202414146EAC4
:102680009E0601D5BDE80189B619524141EB010111
:10269000A3F10103BDE801894FEA14454FEA114750
:1026A00024EA054621EA074C05FB07F406FB07F779
:1026B0000CFB06F105FB0CFC11EB074144EB174446
:1026C0004FEA124711EB0C4144EB1C4422EA074C41
:1026D00005FB07F206FB07F70CFB06F605FB0CFCF7
:1026E00016EB074642EB174216EB0C4642EB1C4535
:1026F0006A1854F1000148BF7047B619524141EBC6
:102700000101A3F10103704795F0000F37D04FEAA4
:1027100011424FEA144721EA024624EA074C02FB21
:1027200007F106FB07F70CFB06F402FB0CFC14EBAD
:10273000074441EB17414FEA154714EB0C4441EBBA
:102740001C4125EA074C02FB07F506FB07F70CFBCB
:1027500006F602FB0CFC16EB074645EB174516EB9D
:102760000C4645EB1C42121951F1000148BF70475D
:10277000B619524141EB0101A3F1010370474FEA41
:1027800014454FEA114724EA054621EA074C05FBA8
:1027900007F106FB07F70CFB06F24FF0000605FBFE
:1027A0000CFC12EB074241EB174112EB0C4251EBD0
:1027B0001C4148BF7047921841EB0101A3F101038E
:1027C0007047490050EAC12018BF04204A0D18BFC5
:1027D00040F0010040F2FF72B2EB515F08BF40F0E1
:1027E0000200012808BF0520704700002DE9F74FBF
:1027F000144696B00021C4E902111799089121F0FE
:102800000045CA498D4206DC1799C4E9000119B098
:102810000020BDE8F08FC649DFF818A3A9423CDDCF
:102820000899C54E0029C54FC54A1799534619DD69
:1028300002F03AF9554506D0C24AC34B02F034F9CA
:10284000C4E900010AE04FF0D352BF4B02F02CF96B
:1028500032463B4602F028F9C4E9000119B00120D4
:10286000BDE8F08F01F014FC554506D0B54AB64BD3
:1028700001F00EFCC4E900010AE04FF0D352B24B64
:1028800001F006FC32463B4601F002FCC4E90001BF
:1028900019B04FF0FF30BDE8F08FAC498D42179969
:1028A00078DC21F000488346A94AAA4B414601F052
:1028B000D5FE0022A84B01F0EBFB01F039FE099098
:1028C00001F065FE06460F469D4A534601F0C6FEDE
:1028D0005A46434601F0F6FF80468A46994A9A4B8B
:1028E0003046394601F0BAFE2A0D01250B924246C8
:1028F000534601F0E7FF032DC4E9000139D00B98DE
:10290000C1F30A51401A05EB45111139884230DDF7
:102910009248C346784400EB0510CDF81CA00C90FB
:10292000D0E900233046394601F098FECDE9020196
:1029300002460B465846079902F0B6F880468A468A
:1029400002460B465846079902F0AEF8DDE902232D
:1029500002F0AAF883460C9803913946D0E9022385
:10296000304601F07BFE5A46039B02F09DF86D1C39
:10297000BDE708980028A2BF099819B0BDE8F08FFC
:10298000616881F000416160099819B04042BDE87A
:10299000F08FFFE7C1F3130141F480110E911799F5
:1029A000C1F30A51A1F2F532511102F01F08C8F12A
:1029B0002002129200220C920D92694A7A4402EB94
:1029C000810101F1140C0DA95FF00607DCF800206D
:1029D000DCF8045002FA08F3129AD1F800A025FAA4
:1029E00002F21A430E9BA2FB0356A2FB00329A444A
:1029F00015449A4534BF4FF0010B4FF0000B51F8CE
:102A0000043C05EB0B0E7344954234BF01220022B7
:102A10001644BBF1000F02D0AB4202D903E0AB4237
:102A200001D2012200E000223244C1F800A041E9B5
:102A30000223091FACF1040C7F1EC7D10898DDE901
:102A40000A6500F10050800F11900898099F8000DE
:102A500001F09DFD80468A46384601F0AFFD6FF0DB
:102A60001D0202F01CFC07463046059101F0A6FD50
:102A70006FF03D0202F013FCCDE90310284601F08F
:102A80009DFD6FF05D0202F00AFC064602460B4611
:102A90000191DDE9031001F0FBFA3A46059B01F0D4
:102AA000F7FA4246534601F0F3FA00200D468346FA
:102AB0004246534601F0F8FF3A46059B01F0F4FF09
:102AC000DDE9033201F0F0FF3246019B01F0FAFE2E
:102AD000DFF89480234A434601F0C0FD06460F46C6
:102AE000224A234B5846294601F0B8FD32463B4660
:102AF00001F0CEFA0F4606464FF0A842434658462C
:102B0000294601F0ABFD32463B4601F0C1FA179A67
:102B100012F0004F04D0119A81F0004152421192FC
:102B2000C4E90001119819B0BDE8F08FFB21E93F1D
:102B30007CD90240FB21F93F7370032E8A19A33B15
:102B4000000040543163621A61B4D03DFB21394129
:102B500083C8C96D305FE43F0000E03F102B0000E8
:102B6000982A0000182D4454FB21F93D3326A61164
:102B7000460B113C2DE9FF4D21F0004807460C465D
:102B8000B8F1795F08DA01F0D3FC002801BF00201A
:102B9000324904B0BDE8F08D3A4623461046194646
:102BA00001F05CFD054602462D480E460B46062107
:102BB000784400F05DF82A46334601F04FFDDDE928
:102BC000022382468B463846214601F047FD0446E3
:102BD0000F4652465B462846314601F03FFD2246ED
:102BE0003B4601F061FF07468A464FF0FF32284618
:102BF000314602F054FB1B4A90450ADA3A465346E6
:102C000001F052FF04B00022BDE8F04D134B01F07B
:102C100059BE154A4245A8BFA8F500154FF000045B
:102C2000B8BF124D22462B4601F03EFF06468846AD
:102C300022462B460020094901F036FF04460D4686
:102C40003A4653463046414601F02EFF04B0224634
:102C50002B46BDE8F04D01F035BE00000000F03F0E
:102C60003C2800003333D33F0000E93F0000D23F4F
:102C70002DE9F0414F1E00EBC7010446D1E90001E8
:102C800015461E4637F006020DD02A46334601F09F
:102C9000E5FC7F1E04EBC703D3E9002301F0F8F93C
:102CA00037F00602F1D1022F25D0042F13D0062FC2
:102CB00018BFBDE8F0812A46334601F0CFFCD4E9C5
:102CC0000A2301F0E5F92A46334601F0C7FCD4E9AE
:102CD000082301F0DDF92A46334601F0BFFCD4E9B0
:102CE000062301F0D5F92A46334601F0B7FCD4E9B2
:102CF000042301F0CDF92A46334601F0AFFCD4E9B4
:102D0000022301F0C5F92A46334601F0A7FCD4E9B5
:102D10000023BDE8F04101F0BBB900002DE9FF4DF3
:102D2000054621F0004084B00C46B0F1795F0BDA23
:102D30002846FFF746FD042808BF00F0A1F9284601
:102D400008B02146BDE8F08D2A460B46104601F03A
:102D500085FC06460F462A46234601F07FFC804646
:102D600026488A4632463B4605217844FFF780FFD5
:102D700083461098029160B3214A224B4046514647
:102D800001F06CFCCDE900015A4640465146029BD9
:102D900001F064FC82468846DDE906014FF0FF320F
:102DA00002F07DFA5246434601F07EFE32463B4633
:102DB00001F054FCDDE9062301F076FEDDE9002395
:102DC00001F072FE08B02A462346BDE8F04D01F03E
:102DD00079BD0B465A463046394601F03FFC084A59
:102DE000084B01F055F94246534601F037FC08B054
:102DF0002A462346BDE8F04D01F04AB9822700007B
:102E0000495555555555C5BF2DE9F04D044688B077
:102E10008F4821F00047164698460D460691874296
:102E200006DA2046294601F083FB002800F0AC803A
:102E3000884887421CDB06980028BCBF85F0004507
:102E400088F00048844A854B2046294601F03AFD27
:102E500004460D46324643468148824901F024FE2D
:102E600022462B4601F014F9002604460D46B046D2
:102E700022462B461046194601F0F0FB8B4682464F
:102E800002460B4601F0EAFBCDE902010246764814
:102E90000B4606217844FFF7EBFECDE900017348AD
:102EA00006217844DDE90223FFF7E2FE52465B4645
:102EB00001F0D4FBCDE9020152465B46204629468B
:102EC00001F0CCFBCDE904019DE80F0001F0E0F832
:102ED000DDE9042301F0C2FB3246434601F0D8F895
:102EE00052465B4601F0BAFB3246434601F0D0F849
:102EF00080460E46DDE904015D4A5E4B01F0AEFB03
:102F00004246334601F0C4F882468B4622462B46A1
:102F100001F0BEF880464F480E46874210985BDBB2
:102F200001F035FB074642463346029101F0B0F806
:102F3000CDE90001424633461046194601F08EFBAA
:102F4000DDE9002301F060F952465B4601F0ACFD7B
:102F500022462B4601F0B6FC012202F0A0F93A46C7
:102F6000029B01F0AFFC04460D460698022101EADF
:102F7000A070C0F1010001F00AFB08B022462B4608
:102F8000BDE8F04D01F06ABB1098401C3843204367
:102F90000BD01098012812D008B022462B46BDE86D
:102FA000F04D0020344901F02FB908B025F000435E
:102FB0002246BDE8F04D0020304901F025B92046F9
:102FC0002946FFF7FEFB042808BF00F059F8204609
:102FD00008B02946BDE8F08D012802BF404608B080
:102FE000BDE8F08D00270B463A462046294601F001
:102FF00069FC52465B4601F065FC04460D464246BC
:10300000334600201C4901F0FFF883463A468846C3
:103010003346104601F022FB0022184B01F038F82D
:1030200006468A4622462B463846414601F016FBA4
:103030003246534601F02CF85A46434601F00EFB47
:1030400008B03A464346BDE8F04D01F021B8000013
:103050000000303E2894E53F182D4454FB21E93F01
:10306000075C143326A6813C80260000A2260000BF
:10307000635555555555D53F0000F0BF0000F03F52
:10308000024A0020110702F00AB9000001FDFFFF0B
:1030900000B5284B21F0004287B09A42DCBF0022E5
:1030A000134631DD244B9A420DD168B94FF001002F
:1030B000FEF7C6FB002207B01346104611465DF826
:1030C00004EB01F0A1B806DB07B04FF001025DF898
:1030D00004EB02F0E4B802AAFFF788FB10F003014A
:1030E00004BF0DF1080CBCE80F000DD00120012930
:1030F0000ED0022914D00DF1080C0090BCE80F008E
:10310000FFF70CFE07B000BDFFF734FD07B000BDB0
:103110000DF1080C0090BCE80F00FFF7FFFD05E083
:103120000DF1080CBCE80F00FFF724FD07B081F09B
:10313000004100BDFB21E93F0000F07F2DE9F04D8B
:10314000CC4A002490B0914205DA21F0004393422A
:1031500001D807D130B110B04FF00102BDE8F04DF9
:1031600002F09DB8B1F5801F21DA53EA00020DD0BC
:10317000002917DA0120FEF763FB10B00022BDE83A
:10318000F04D13461046114601F03EB80220FEF7FE
:1031900057FB10B00022BDE8F04D13461046B6496B
:1031A00001F032B86FF03504362202F078F804EB03
:1031B0002152C1F31308B149A2F2FF33414401F493
:1031C000801282F07F6103EB225281F04051009225
:1031D00041EA08010022AA4B01F066FC044608F10E
:1031E0000200A84EC0F313000D467E44032867D2A8
:1031F000D6E90023204601F05FF91ED1009800288F
:1032000002BFD6E9000110B0BDE8F08D01F0BFF9B2
:1032100004460D469C4A9D4B01F020FA07460E4697
:103220009B4A9C4B2046294601F018FA10B03A46BA
:103230003346BDE8F04D00F02BBF4FF05532964BB2
:103240002046294601F00AFA0022944B01F03AFB8D
:1032500007460E4622462B461046194601F0FEF957
:103260003A46334601F0FAF9064600980F46F0B1A7
:1032700001F08DF980468A46834A844B01F0EEF9CD
:1032800032463B4601F01EFB22462B4601F00CFC69
:1032900005460C467E4A7F4B4046514601F0DEF91A
:1032A00010B02A462346BDE8F04D01F0FDBB0B46A9
:1032B00010B0324620462946BDE8F04D01F0F4BB7F
:1032C00000224FF08043204600F0E2FE02460B460B
:1032D0002046294600F098FF06460F46009801F068
:1032E00056F9CDE9040132463B461046194601F035
:1032F000B5F90C906A48099108EB000201920C9A0A
:103300000B46104601F0AAF98246024665488B46F4
:10331000C8F151080B4608F5D72803217844FFF778
:10332000A7FC52465B4601F099F90A905E480D9160
:1033300052465B4604217844FFF79AFC099B0C9A9D
:1033400001F08CF9019A0D9B42EA08080A9A00F0F4
:103350009FFE83460891B8F1000F4EDD4FF0FF321B
:103360002046294601F09BFF22462B4601F076F9C4
:10337000804600988A4660B3DDE90401424A434B27
:1033800001F06CF9099100905A4640465146089B5D
:1033900000F07EFE32463B4601F060F9099B009A40
:1033A00000F076FE4246534601F08CFA22462B4648
:1033B00001F07AFB04460D46DDE90401344A354B41
:1033C00001F04CF910B022462B46BDE8F04D01F05B
:1033D0006BBB5A464046089B00F05AFE32463B46BD
:1033E00001F03CF94246534601F06CFA10B0224617
:1033F0002B46BDE8F04D01F065BA009840B3DDE919
:103400000401214A214B01F029F9824688465A4697
:1034100020462946089B01F047FB32463B4601F017
:103420001DF95246434601F03FFB22462B4601F070
:103430003BFB04460D46DDE90401154A154B01F03E
:103440000DF910B022462B46BDE8F04D01F02CBB23
:103450000B465A462046294601F026FB32463B469B
:1034600001F0FCF810B022462B46BDE8F04D01F00B
:1034700029BA00000000F07F0000F0BF645F09007F
:103480000000F03F32220000763C7935EF39EA3D0A
:103490000000E0FE422EE63F5555D53F0000E03FDC
:1034A00086EBF9FF102000000E2000002DE9F04D02
:1034B00016460F460546020094B01C4621F0004116
:1034C00023F0004014BF4FF0010C4FF0000C0CEB48
:1034D000470CFE4B0CEB03084FEA630CC4452DD898
:1034E0005FEA060818BF4FF0010808EB440898444B
:1034F000F74B434522D8F74B50EA060C02D09F42C7
:1035000005D14AB914B000201946BDE8F08D002A53
:1035100008BF4FF0000C01D04FF0010C0CEB47033B
:1035200013F5001F0AD8002E14BF4FF0010C4FF006
:10353000000C0CEB440313F5001F08D914B03246FD
:10354000234628463946BDE8F04D00F0A1BDDFF81E
:1035500088B34FF0000A002FB8BF584523DADF4B7D
:103560009842A8BF4FF0020A1DDADA4B98421ADBE4
:10357000DB4B03EB2053142B08DDC3F1340C26FA8C
:103580000CF303FA0CFCB4450DD108E05EB9C3F1AD
:10359000140C20FA0CF303FA0CFC844503D103F05D
:1035A0000103C3F1020A51EA020321D1002C1FDA00
:1035B000002F18BFBAF1020F02D0BAF1010F0BD0E1
:1035C0000220FEF73DF914B00022BDE8F04D13468D
:1035D0001046C04900F018BE0220FEF731F914B0C1
:1035E0002A463B46BDE8F04D0020BA4900F00CBE2B
:1035F00033006DD1584525D107F1804010F580107A
:1036000001BF002A0020B34914B008BFBDE8F08D07
:10361000B048814207DB002CA1BF1846214614B0F8
:10362000BDE8F08D07E0002CBFBF184684F00041D4
:1036300014B0BDE8F08DAB497944D1E9000114B074
:10364000BDE8F08DDFF88CC2604526D1002C1FDA72
:1036500019B1594513D15AB11AE0002A40F0DA8263
:103660009D4A394614B0002062F31E01BDE8F08D7A
:103670000020394614B060F31E01BDE8F08D07DA72
:1036800014B03B46BDE8F04D0020614600F0BCBDE3
:1036900014B010463946BDE8F08D8B4518DDB4F105
:1036A000804F0DD0A4F10053B3F1FF5310D13B1E56
:1036B0000EDB14B01046BDE8F04D194600F03EBCDC
:1036C0003B4614B01046BDE8F04D194600F0C6BFA9
:1036D00027F00043A2BBE1B1594538D1002F06DDE8
:1036E000002CA1BF0020594614B0BDE8F08D002F7A
:1036F00001DD002C1FDB002F16DA002C14DBBAF1E1
:10370000010F4FF000000CBF7749734914B0BDE8BA
:10371000F08DBAF1020F18BF002F0CD0BAF1010FD3
:1037200009D1002F07DA0CE0002FB8BF002C0EDA09
:10373000BAF1010F05D0002014B00146BDE8F08DAC
:1037400005E014B000204FF00041BDE8F08D4FF0CF
:10375000010C0CEBE7720D9252EA0A020BD0634A9D
:1037600090427DDD624B634A984216DD91420EDC49
:10377000002C1CDB2CE00120FEF762F814B00022C4
:10378000BDE8F04D13461046114600F03DBD5148CE
:10379000884202DC002C0ADC1AE08A4202DD002C9E
:1037A00005DB15E04B4B99421EDD002C10DD02209D
:1037B000FEF746F840F2013200204FF0E04101F000
:1037C0006EFD454A14B061F31E021146BDE8F08D4E
:1037D0000220FEF735F8FFF753FC3E4A14B061F3C0
:1037E0001E021146BDE8F08D00222846394601F040
:1037F0005BF9054688466FF0010201F050FD4FF07D
:1038000055323D4B01F05EF82A46434600F026FF54
:1038100000223A4B01F056F807468B462A464346AB
:103820001046194600F01AFF3A465B4600F016FFB4
:1038300009910C904FF0C042314B2846414600F0B0
:103840000DFF07468B462F4A2D4B09990C9800F027
:1038500005FFCDE901102C4A2C4B2846414600E0DB
:1038600019E000F0FBFEDDE9013201F01DF93A46F6
:103870005B460591089000F00BFC002588463A460F
:103880005B46284601F010F9059B089A01F01AF8EA
:10389000024600F076B90020B1F5801F07DA352224
:1038A0002846194601F0FBFC05466FF0340000EB9A
:1038B0002150A0F2FF300190C1F3130040F07F616E
:1038C00041F0405102911249884223E0FFFF1F005E
:1038D000FFFF0F000000F03F0000F07F00004043BA
:1038E00001FCFFFFE41D00000000F0FF0000E041CC
:1038F0000000F043FFFFEF3F5555D53F0000E03F8C
:103900004715F73FFE822B6544DF5DF80BAE543E52
:103910008E980300D8BF4FF0000B0EDDFE498142A8
:10392000C8BF4FF0010B08DC01984FF0000B401CA2
:1039300001900298A0F580100290F848029978440E
:1039400000EBCB000B911090D0E90023284601F04A
:10395000ABF8009010980791D0E9002328460B9906
:1039600000F096FB02460B460020ED4900F04CFCAF
:1039700005910B46024608900799009800F06EFEEC
:103980000690E848884600277844029900680E901F
:103990004FF0005040EA610000EB8B4000F5002141
:1039A00010980291D0E900230E9801F07DF82A4684
:1039B0000B9B00F087FF3A46434600F04FFE05465A
:1039C0000B9138464146029B0E9A00F047FE079B3A
:1039D000009A00F077FF2A460B9B01F065F8059BE3
:1039E000089A00F03BFE0B911090069A4346104651
:1039F000194600F033FE05460246CB480B460091BF
:103A000006217844FFF734F9009B2A46029108907A
:103A10001046194600F022FE029B089A00F01EFE96
:103A200005460591434638461946069A00F030FB94
:103A30000B9B109A00F012FE2A46059B00F028FB13
:103A40003A464346059108901046194600F006FE96
:103A50000022B64B00910C9000F01AFB059B089ACF
:103A600000F016FB0D463A46B04B384601F01CF804
:103A7000009B0C9A01F018F8059B089A00F022FFB1
:103A800011913A460C902B461046414600F0E6FD57
:103A9000079100904346069A11990C9800F0DEFDBC
:103AA000804603912B463A460B99109800F0D6FDBC
:103AB0004246039B00F0ECFA059180460B46024615
:103AC0000799009800F0E4FA00200F460546079B8E
:103AD000009A00F0E9FF4246059B00F0F3FE8046A5
:103AE00009914FF06042924B2846394600F0B6FDEE
:103AF000009102908F4A8E4B4046099900F0AEFD2E
:103B0000804603918C4A8D4B2846394600F0A6FD2D
:103B10004246039B00F0BCFA894A7A4402EBCB038D
:103B2000D3E9002300F0B4FA06900391019800F065
:103B30002EFD0746DDE902030591069A009900F083
:103B4000A7FA804A7A4402EBCB0BDBE9002300F0B2
:103B50009FFA3A46059B00F09BFA002588463A46B4
:103B60002846059B00F0A0FFDBE9002300F09CFF46
:103B7000009B029A00F098FF039B069A00F0A2FEB9
:103B80000246002006900D98654FAAF101031843E4
:103B900001D16D4F069000200B4600903046214623
:103BA00000F05CFD82468B46234630461946009A5B
:103BB00000F07AFF2A46434600F050FD52465B462D
:103BC00000F066FA06468A462A4643462146009891
:103BD00000F044FD04460D463246534600F058FAC4
:103BE0005A4A8B46914226DBABEB020353EA0002B2
:103BF00010D122462B4600F057FF80460591544ACB
:103C0000544B3046514600F043FA4246059B00F0C3
:103C100023FE30D20220FDF713FE40F201320020D5
:103C20004FF0E04101F03BFB0A46394614B062F325
:103C30001E01BDE8F08D484B2BF000429A421AD38A
:103C4000464A0BEB020353EA000208D122462B46F8
:103C500000F02AFF3246534600F0FEFD0BD802204A
:103C6000FDF7EEFDFFF70CFA0A46394614B062F391
:103C70001E01BDE8F08D2BF000403949394A01EBB7
:103C800020514FF00008904223DD481C4FF4801172
:103C900021FA00F05844C0F30A51334AA1F2FF312F
:103CA0007A44324B1268CB4020EA0303C0F313007E
:103CB00040F4801CC1F114002CFA00F8BBF1000F95
:103CC000B8BFC8F100082046294600F0EDFE0446C2
:103CD0000D4622462B463046514600F0D9F94FF0AA
:103CE000000B5A46224B5846059100F0B7FC009055
:103CF0000791204A204B5846059900F0AFFC0491EB
:103D0000029022462B465846059900F0CDFE3246D9
:103D1000534600F0D7FD31E07AB60B00261A0000BA
:103D20000000F03F941A00009219000000000840C3
:103D300009C7EE3FFD033ADCF5015B14E02F3EBE00
:103D40006A180000301800000000F0BF000090402A
:103D5000FE822B654715973C00CC904000346F3FA6
:103D600001FCFFFF0000E03F7C170000FFFF0F0099
:103D7000432EE63F396CA80C615C20BE3F4A404BA5
:103D800000F06CFC049B029A00F082F906468A4619
:103D9000079B009A00F07CF904460D46079B009AA9
:103DA00000F082FE3246534600F08CFD0646224665
:103DB0002B4609911046194600F050FC83460246F6
:103DC00030488A460B4605217844FEF751FF5A4693
:103DD000534600F043FC22462B4600F073FD82461A
:103DE0008B46324620462946099B00F037FC324676
:103DF000099B00F04DF90591089000224FF0804397
:103E00005046594600F050FE0646009152465B4629
:103E10002046294600F022FC3246009B00F0F4F9CF
:103E2000059B089A00F040FE22462B4600F03CFE1F
:103E30000022154B00F046FD0D46044601EB0851EB
:103E40000815002810DC42462046294601F027FAD2
:103E5000FEF7B7FC042808BFFFF712F942462046D8
:103E6000294601F01CFA044606980B4614B0224677
:103E70003946BDE8F04D00F0F1BB0000EF39FAFE25
:103E8000422EE63FFC1500000000F03F00B5294B34
:103E900021F0004287B09A4203DC002213460092D0
:103EA00033E0254B9A420DD168B94FF00100FDF780
:103EB000C7FC002207B01346104611465DF804EB1C
:103EC00000F0A2B906DB07B04FF001025DF804EB89
:103ED00001F0E5B902AAFEF789FC10F003014FF0EA
:103EE00001000DD0012914D002291AD00DF1080CBF
:103EF000BCE80F00FEF73EFE07B081F0004100BDB8
:103F00000DF1080C0090BCE80F00FEF707FF07B0AA
:103F100000BD0DF1080CBCE80F00FEF72BFE07B04A
:103F200000BD0DF1080C0090BCE80F00FEF7F6FE96
:103F3000E2E70000FB21E93F0000F07F2DE9F041BE
:103F400006460F4600F0CAFC04000D4618BF0120CB
:103F5000284320F00040C0F17F6000F1E040C00F36
:103F60000FD0002E14BF01200020384320F0004065
:103F7000C0F17F6000F1E040C00F04BF0120FDF7F9
:103F80005FFC20462946BDE8F081000010B51A4BC1
:103F900021F00042012486B09A4203DC002213463D
:103FA000009424E0154B9A420DD168B94FF00100FE
:103FB000FDF746FC002206B01346BDE8104010464F
:103FC000114600F021B906DB06B04FF00102BDE852
:103FD000104001F064B902AAFEF708FC00F00100ED
:103FE000A4EB40000DF1080C0090BCE80F00FEF7B8
:103FF0000BFF06B010BD0000FB21E93F0000F07F81
:1040000010B500290AD00878002807D00548784460
:10401000FDF7D6FF002801D0002010BD02487844EB
:1040200010BD00001E1600001616000021F0004210
:10403000A2F16052B2F5801F01F0004328BFD2F117
:104040007F6C0BD95FEA001C43EAC20242EB50705E
:1040500018BF704728BF20F001007047B2F5801FDD
:10406000BCBF184670474FEA410C1CF5001F02D236
:10407000084601F066B870B500F09AFB00000089B0
:10408000FFF7F6BF4FF00040A0F58000704700003A
:1040900010B591EA030F48BF83F0004300F10C858F
:1040A000841A71EB030C05D2121943EB0C03001BAD
:1040B00061EB0C01DFF824E14FEA1154A4EB135C2F
:1040C0001EEA430F18BF9EEA445F73D023EA0E0333
:1040D000DCF1200E21EA045143F4801332D322FA9A
:1040E0000CFE10EB0E0023FA0CFE41EB0E01CCF19E
:1040F000200E03FA0EFE10EB0E0051F10001B1F597
:10410000801FCCF1200E32D201EB045112FA0EF2D4
:10411000BDE8104058BF7047401C38BF5FEA4202FC
:1041200018BF7047002814BF20F0010041F10001C2
:104130004FEA410313F5001F38BF7047A1F1C0419A
:1041400000F084BB012A43EB0302ACF1200CDCF14C
:104150001F0E32BF4FF0000E23FA0CF310EB0300DA
:1041600041EB0451B4EB115FD0D0A1EB045101F548
:10417000801149085FEA300001EB04510ED350F181
:10418000000038BF12FA0EFE08D1BDE81040C9E7A2
:10419000401C38BF5FEA4202CAD1C3E7BDE8104005
:1041A0004FEA410313F5001F38BF7047A1F1C0412A
:1041B00000F04CBB9EEA445F08D011EA5E0FBDE8F8
:1041C000104004BF01F0004100207047BDE81040DE
:1041D00070B500F0EDFA00BF64FBBE3E0000E0FFEA
:1041E00002494FF0000001F028B800BF0000F87F3E
:1041F000491058BFC1F140415B1058BFC3F1404363
:104200008B42EFF3008070472DE9C04130B4DFF8F6
:10421000A0C23CEA111418BF3CEA131400F0EC8071
:1042200081EA03051CEA111444EAD57418BF1CEA9C
:10423000131500F0C780A4EB05044FF0004545EAD4
:10424000C12145EAC32341EA505143EA525304F1E4
:104250007F74994204F500344FEAC0204FEAC2222D
:1042600008BF904200F09C804FEA13650FF24016A1
:10427000765D4FEA134506FB05F7C7F1807706FB2D
:1042800007F74FEAD737A7FB03687642C8F58038AF
:10429000A7FB06CE38BFA8F1010807FB08E64FF0E0
:1042A000000EA6FB028CE6FB03CEDCF1000CCEF187
:1042B000004E38BFAEF1010EA6FB0C584FF00007C0
:1042C0004FF00005E6FB0E87A1FB08C6A0FB07CE5A
:1042D00016EB0E0645F10005E1FB076515F1E04E12
:1042E0007EBFA4F580345FEA46066D4116F1800773
:1042F00045F100054FEA17274FEA066647EA0567CA
:10430000A6F1DE46B6F1805F4FEA15251FD9384683
:1043100024F0010C05EBC471BCF1FE6F01EB0C1134
:1043200002D8F0BCBDE8008124425CBF01F5801ECC
:104330009EEAC47F02D4F0BCBDE80081244238D498
:10434000F0BCA1F1C041BDE8004100F07FBA4FEAE6
:10435000D22242EA43524FEAD323A7FB02864FEA16
:10436000D02040EA415007FB03661EEA0E0F4FEAD9
:10437000D12105FB026658BFA6EB0056B6EB0056EE
:104380004FEA520E4EEAC37E18EB0E0E56EB530E5A
:10439000BDD518EB02085E417F1C55F10005B6E75C
:1043A0004FF480154FF000074FF000064FF0000863
:1043B000ADE7F0BC4FF0000001F1C04101F0004159
:1043C000BDE8008111EA0C1F0CEA131500D00CE0C7
:1043D00013EA0C1F00F025804FF00000F0BC81EACA
:1043E000030101F00041BDE80081F0BCBDE80041DF
:1043F00081EA030100F02ABAF0BCBDE8004170B5C3
:1044000000F0D6F9097EFC3E00F007B881EA03010E
:104410004FF0000001F00041704781EA030100F015
:1044200015BAF0BCBDE800414FF0000021497047CB
:10443000FFFDFBF9F7F5F4F2F0EEEDEBE9E8E6E469
:10444000E3E1E0DEDDDBDAD8D7D5D4D3D1D0CFCDF0
:10445000CCCBCAC8C7C6C5C4C2C1C0BFBEBDBCBB29
:10446000BAB9B8B7B6B5B4B3B2B1B0AFAEADACAB24
:10447000AAA9A8A8A7A6A5A4A3A3A2A1A09F9F9EFE
:104480009D9C9C9B9A9999989797969595949393B0
:10449000929191908F8F8E8E8D8C8C8B8B8A898947
:1044A00088888787868585848483838282818180CA
:1044B0000000FF070000F87F51EA030C17D41CF539
:1044C000801F58BFBCF5801F00F10680994218BFBD
:1044D000704708BF9042704707D711F5801F58BF3B
:1044E00013F5801F19D499427047894270471CF513
:1044F000801F08D5BCF5801FF7D58B4218BF7047C9
:1045000008BF824270474FF4001C1CEB410F38BFBC
:104510001CEB430F01D28B42704770B500F048F995
:10452000922449004FF000514FF08053FFF760BED6
:104530004FEA41034FEA5353A3F58063D3F11E03BF
:10454000C8BFD3F1210C0CDD4FF0004242EAC1227A
:1045500042EA505232FA03FC8CEAE17CACEBE170A7
:104560007047102BC4BF0020704703F5787CBCF166
:10457000FF3F04D06FF0004282EA2100704770B51F
:1045800000F016F94992248000207047F2E710F0FD
:10459000004248BF4042B0FA80F310FA03F10AD05B
:1045A000C3F11D0303F580634FEA415002EB035250
:1045B00002EBD12170474FF000007047B0FA80F352
:1045C00010FA03F10AD0C3F11D0303F580634FEA2B
:1045D00041504FEA035202EBD12170474FF00000E7
:1045E0007047000051EA030C17D41CF5801F58BF18
:1045F000BCF5801F00F10680994218BF704708BFC4
:104600009042704707D711F5801F58BF13F5801FE0
:1046100019D499427047894270471CF5801F08D50C
:10462000BCF5801FF7D58B4218BF704708BF824288
:1046300070474FF4001C1CEB410F38BF1CEB430FBD
:1046400001D28B42704770B500F0B2F89224490055
:104650004FF000514FF08053FFF7CABDDFF848C15B
:1046600070B51CEA111E1EBF1CEA13159EEA0C0F42
:1046700095EA0C0F00F06F8081EA030423EA4C13E3
:104680004EEAD47E21EA4C1141F4801143F48013A8
:10469000AE44A1FB024CA0FB0365AEF17F7E361950
:1046A00055EB0C05A1FB034C4CF10003A0FB021CD5
:1046B00016EB0C06654153F10003094218BF46F0A2
:1046C000010613F4007F0BD14FEA03314FEA0530A6
:1046D000340341EA155140EA16506FF003020AE034
:1046E0004FEAC3214FEAC520F40241EA555140EA9E
:1046F00056506FF0020202EB2E4201EB025585EAA2
:10470000CE710AD05FEA440C18BF24F0004450F187
:10471000000041F1000120EAD47040F2FE7C6245C5
:1047200000D270BDA84214BF4FF080444FF0404407
:10473000002E08BF0024BEF1806FA8BFA1F1C041C8
:10474000BDE8704080F282804FF0000001F1C0416E
:1047500001F0004170479EEA0C0F0CEA131518BFD8
:1047600095EA0C0F06D04FF0000081EA030E0EF020
:10477000004170BD00F01CF88900013E00F007B850
:1047800000F009B84FEA430C5FEA5C5C08D081EAAC
:10479000030100F05BB84FEA410C5FEA5C5CF6D1C4
:1047A0004FF00000014970470000FF070000F87F4C
:1047B0000EF1020E2EF0030E5EF8046B364205D4A5
:1047C000012A43EB030515F5001F12D8012841EB20
:1047D000010C1CF5001F0CD80ED14FEAD17C15F549
:1047E000001F0CEB4C0C0CF1020C08BF4CEBD37C03
:1047F00004E04FF0080C01E04FEAD37C0CEB4C05D1
:1048000026FA05F606F00706B6F1040C06D20EEB02
:10481000860CBDE870404CF0010C6047DFE80CF0FE
:10482000090B02024FF000414FF00000A1F50021FA
:1048300070BD19461046012851EB010418BFD4F58C
:10484000001484BF002001F0004170BD0808A0F5ED
:1048500000114FEA3101704753EA010C17D41CF5DF
:10486000801F58BFBCF5801F00F106808B4218BF27
:10487000704708BF8242704707D713F5801F58BFA3
:1048800011F5801F19D48B4270479B4270471CF56D
:10489000801F08D5BCF5801FF7D5994218BF704717
:1048A00008BF904270474FF4001C1CEB430F38BF09
:1048B0001CEB410F01D2994270470FB40CBC03BCF2
:1048C000FFF7C1BE91EA030F10B581F000413FF53B
:1048D000E7AB83F0004300F0EFB800002DE9F041B2
:1048E00001F5801CBCF5001FC0F2C3804FEA115CCB
:1048F00021EA0C510CF1FD0C41F480115FEA5C0CD3
:104900000CF5C07C01D3400049413DA4890241EA35
:10491000905187028E0E0A0CA45D04FB04F602FB84
:1049200006F6C6F14046A4FB0662F60D46EA4226AC
:1049300006FB06F4A4FB01235242C3F1404338BFF7
:104940005B1EA6FB02420024E6FB0324D20B42EAD4
:104950004446A6FB0623A1FB02E2A3FB07E4A4183E
:104960004FF0000252F10002E3FB01426442C2F147
:10497000404E38BFAEF1010EA6FB04234FF00002FB
:10498000E6FB0E32A2FB03464FF00004B61954F1C9
:104990000004E2FB0264A1FB06E6A4FB07E816EBB9
:1049A00008064FF0000858F10008E4FB0168764261
:1049B000C8F1405838BFA8F10108A2FB06E4A3FBE8
:1049C00008E52D194FF0000454F10004E2FB0854EF
:1049D000A1FB05E6A7FB04E818EB06084FF000066C
:1049E00056F10006E1FB048618F1200556F1000699
:1049F000A809A8F11B08B10908F03F08B8F10A0F8F
:104A000040EA86601CD901EB0C51BDE8F08100BF83
:104A1000FCF5EEE8E2DDD8D3CFCBC7C3C0BDB9B655
:104A2000B4B1AEACA9A7A5A3A19F9D9B9A9896955A
:104A30009392908F8D8C8B898887868584838281E1
:104A4000A0FB006800FB01F208EB4208B8EB8728E6
:104A500007D5341858EB0104D5D5401C51F100019D
:104A6000D1E7341A78EB0104CDD4401E71F1000176
:104A7000C9E75FEA4C0C5FEA9C5C0DD105D34FF0AF
:104A8000000001F00041BDE8F081BDE8F04170B5E3
:104A9000FFF78EFE6DDBFFBEBDE8F0414FF000007A
:104AA000004970470000F87F10B591EA030F48BF36
:104AB00083F000433FF5F4AA841A71EB030C07D28C
:104AC00012198CF0004C43EB0C03001B61EB0C0142
:104AD000DFF8A4E14FEA1154A4EB135C1EEA430F84
:104AE00018BF9EEA445F00F0B08023EA6E03524292
:104AF00021EA0451C3EB6E0338BF5B1EDCF1200ECC
:104B000025D322FA0CFE10EB0E0043FA0CFE41EB0B
:104B10000E01CCF1200E03FA0EFE10EB0E0051F147
:104B20000001CCF1200E29D412FA0EF201EB04514F
:104B3000BDE8104058BF7047401C1CBFB2F1004F89
:104B4000704700280CBF491C20F00100704712EB91
:104B5000020E43EB030218BF4FF0010E4EEA420271
:104B6000ACF1200CDCF11E0E54D943FA0CFE10EB14
:104B70000E0051F1FF31CCF11E0ED5D50EF1010E14
:104B800012FA0EFE404141EB010101EB445C5FEA89
:104B90005C5C10D910EBDE7001EB045138BFBEF144
:104BA000004FBDE8104018BF704700280CBF491CDB
:104BB00020F00100704730D24FEAD42C11F50011DB
:104BC00024F400641BD0B1FA81F20B3AA41AA41E9B
:104BD000D2F12003914030FA03F31943904001EBE6
:104BE000CC71002C01EB0451BDE81040A8BF704708
:104BF00001F1C0414FF0000001F000417047B0FAF0
:104C000080F310FA03F100D110BDE41A173C4805F7
:104C1000C90AE4E701EB045110BD491001EB04514E
:104C2000BDE810404FEA300002E04FF0000170474D
:104C30004A0008BF0042F8D0B2F5001F28BF7047F5
:104C400001F000414FF0000070479EEA445F07D03A
:104C500011EA5E0FBDE8104004BF0021002070473C
:104C6000BDE8104070B5FFF7A3FD00BF40DFF63E82
:104C700083F00041104670470000E0FF43004FEA18
:104C8000D30C4FEA3C0C43401FBF40070CF160516E
:104C900013F0FE4F70471CF0006F03D100200CF0A2
:104CA000004170470CF0004343EA507010B540EAF1
:104CB000CC0000F000FA00BF000000924FEA0001B3
:104CC000FFF7C4BD4FF000414FF00000A1F50021F7
:104CD0007047000090EA010F48BF81F0004100F1E9
:104CE0003C82421A3CBF801A89184FEAD0524FF0DA
:104CF0007F4C1CEA410FA2EBD15318BF9CEA026F14
:104D000000F03B804FF0004C4CEA00204CEA0121BF
:104D100021FA03FC10EB0C0C1ED202F1FF325FEA09
:104D20001C2040EBC25038BF70471CF07F0F4FEA89
:104D3000400C18BFBCF17F4F38BF7047C3F1200350
:104D4000994008BF20F00100BCF17F4F38BF704789
:104D5000A0F1C04000F0F5B94FEA3C00000A40EB7A
:104D6000C25028BF1CF0FF0F4FEA400CE6D018BF1E
:104D7000BCF17F4F38BF7047EAE79CEA026F05D06D
:104D800010EA5C0F08BF00F00040704710B500F05B
:104D900092F900BF64FBBE3E4FF47F0C1CEAD012B8
:104DA0001EBF1CEAD11392EA0C0F93EA0C0F00F01D
:104DB000858090EA010F48BF42F4807240F4000CF5
:104DC00041F400002CF07F4120F07F4000B581428B
:104DD000A2EB03020FF2081CACEB504EC0F1000036
:104DE0009EF800E04FEA4E0E00FB0EFC38BF490073
:104DF0004FEA2C1C02F5FA020CFB0EF34FEACE1E12
:104E00004FEA112C4FEAC1210EEB635E42EB2242C6
:104E10000EFB0CFC4FEA1C5300FB03114FEA112C54
:104E20004FEA01310EFB0CFC4FEADC4C00FB0C118D
:104E3000C14228BF09184CEB03335DF804EB10EBBB
:104E4000410143EBC250B2F57C0F38BF704729D502
:104E500012F0F00F1CBF00F1C04000F0004070479E
:104E6000008182838485868788898B8C8D8E8F9143
:104E70009293959697999A9C9D9FA0A2A3A5A7A867
:104E8000AAACAEB0B2B3B5B7B9BCBEC0C2C5C7C993
:104E9000CCCED1D4D7D9DCDFE2E6E9ECF0F3F7FAF7
:104EA000FE0000004FEA400C0CF1807CBCF17E4F0C
:104EB00028BF7047B0F1C04000F043B990EA010F3D
:104EC0000CEAD11348BF42F48072624538BF634593
:104ED00007D213F47F0F16D080EA010000F00040E3
:104EE000704710B500F0E7F8097EFC3E00F005B809
:104EF00080EA010000F00040704780EA010000F005
:104F0000004000F01EB912F47F0F04BF0248704742
:104F100080EA010000F015B90000C07FC10DD1F199
:104F20009E0206DB4FEA002343F0004323FA02F01F
:104F30007047004207D54FEA4001B1F1FE4F02D25F
:104F40004FF00000704710B500F0B5F8499224808A
:104F5000002070476FEA20007047000010F0004109
:104F600048BF4042B0FA80F310FA03F2C3F19D0348
:104F70000BD051EAC35101EB1220530638BF7047E2
:104F800000F1010008BF20F001007047B0FA80F383
:104F900010FA03F2C3F19D030AD0D90501EB1220E8
:104FA000530638BF704700F1010008BF20F0010030
:104FB000704700004FF47F0C1CEAD0121EBF1CEAA1
:104FC000D11392EA0C0F93EA0C0F00F0478090EA9D
:104FD000010F48BF42F480724FF0004C4CEA0020B1
:104FE0004CEA012102EB0302A0FB0113A2F500022F
:104FF000002918BF43F001035B0028BF4FEA3303C9
:1050000042EB22425FEA132C4CEBC2502EBFBCEBAA
:10501000436FB2F57C0F70474FEA036CBCF1004F51
:1050200008BF20F00100B2F57C0F38BF70470BD5E8
:1050300082F0FF0212F5803FC8BF704700F1C04008
:10504000D8BF00F00040704700F5000C5FEA4C0C40
:1050500048BF7047B0F1C04000F073B890EA010F4C
:105060000CEAD11348BF42F48072624538BF6345F1
:1050700004D280EA010000F00040704710B500F053
:105080001AF800BF8900013E00F007B800F009B827
:105090005FEA410C5FEA1C6C08D080EA010000F076
:1050A00050B85FEA400C5FEA1C6CF6D14FF000404C
:1050B000A0F5800070470EF1020E2EF0030E5EF890
:1050C000044B244204D44FEA4102B2F17F4F11D87D
:1050D0004FEA4003B3F17F4F0CD80ED14FEAD07C9A
:1050E000B2F17F4F0CEB4C0C0CF1020C08BF4CEBF7
:1050F000D17C04E04FF0080C01E04FEAD17C0CEBCE
:105100004C0324FA03F404F00704B4F1040C06D2AF
:105110000EEB840CBDE810404CF0010C6047DFE85A
:105120000CF0070802024FF00040A0F5800010BD0F
:105130000846420018BFD2F1807288BF00F00040DC
:1051400010BDFF2141EAD050C005704790EA010F21
:1051500048BF81F000413FF5C4AD421A04D882F047
:105160000042A0EB020011444FEAD0524FF07F4CB6
:105170001CEA410FA2EBD15318BF9CEA026F4AD040
:105180004FF0004C4CEA00204CEA012121FA03FCCC
:10519000B0EB0C0C0FD412F0FE0F36D05FEA4C00CF
:1051A0001DD5001240EBC25038BF70471CF03F0FB6
:1051B00018BF70470BE0A2F101025FEA1C2040EB30
:1051C000C25038BF70471CF07F0F18BF7047C3F143
:1051D0002003994014BF401E20F001007047800852
:1051E0004FEA122308BF7047B0FA80FCA2EB0C0212
:1051F000CCF1280C60FA0CF093EA122F04BF00EBFC
:10520000C25070474FEAC3707047130A5FEADC1060
:1052100008BF7047F6E79CEA026F04D010EA5C0F03
:1052200008BF0020704710B5FFF745FF40DFF63E8E
:1052300081F000407047FCF73BBC0CF00F03092BDA
:1052400008BF082000F059800A2B0BD0082B18BF8C
:10525000704708BF1CF0400F0AD04FF000004FF01D
:10526000000170471CF0400F18BF4FF0004070471E
:105270001CF0100F08D020F0704300F07F4242EA8B
:10528000D3014FEA4370704700F0604021F07F4245
:1052900042EA000201F07F4040EA727070474FF02E
:1052A000FF0C4CF4E06C1CEA11531CBF9CEA030C8D
:1052B0009445C2BFDA4201EB02517047002B0DD07A
:1052C000BCF1000F0FD0002A01F00041A4BF41F053
:1052D000E04141F07F614FF00000704701F0004174
:1052E0004FF00000704750EA01334FF09B0C18BF9D
:1052F0004CF0806C7EF474AF70471CF4801F11D0AA
:105300001CF4E02F03D06FEACC31490070474FF016
:105310004050EFF3008222F0704242EA000282F332
:10532000008870474FF00000704700000000000048
:1053300004FA97999999D93FAF788E1DC571CC3FE2
:105340009FC678D0099AC33F935555555555E53FAB
:10535000599322942449D23FDE03CB966446C73F3B
:1053600044523EDF12F1C23F000000000000F03F57
:10537000000000000000F83F0000000000000000F6
:105380000000004003B8E23F000000000000000001
:1053900006D0CF43EBFD4C3E033333333333E33F8F
:1053A000FFAB6FDBB66DDB3F4D268F515555D53FBB
:1053B00001411DA96074D13F65DBC9934A86CD3F89
:1053C000EF4E454A287ECA3F3E5555555555C53F77
:1053D00093BDBE166CC166BF2CDE25AF6A56113F69
:1053E000F16BD2C541BDBBBED0A4BE726937663E6B
:1053F0004C5555555555A53F7751C1166CC156BFF3
:105400009015CB19A001FA3EAD529C804F7E92BE02
:10541000C4B1B4BD9EEE213ED43888BEE9FAA8BD21
:10542000000000000000000000004054FB21F93F94
:105430003163621A61B4D03D0000601A61B4D03D9E
:105440007370032E8A19A33B0000002E8A19A33B18
:10545000C14920259A837B3900000000000000002C
:105460006E83F9A22915444ED15727FCC0DD34F5CF
:10547000999562DB4190433CAB6351FE61C5BBDE55
:105480003A6E24B7E0D24D42EA2E49061C92D10969
:105490001CEB1DFE3EA729B1F53582E88444BB2EE6
:1054A00026709CE9417E5FB439D69139F439538333
:1054B0008B5F849C3B28F9BDFF97F81F0F9805DE92
:1054C0008B112FEF1F6D0A5ACF7E366DB709CB2790
:1054D000663F464F2DEA5F9EC7BA27757BF1E5EB25
:1054E000F739073DEA92528AB15FFB6B085D8D1F69
:1054F000A6F810111111813FD561C119A0012ABF71
:105500007DFEB157E31DC73EEB9C2B8AE6E55ABEF4
:105510007CD5CF5A3AD9E53D7AFE10111111C13F21
:1055200037D60684F464963F280356C9226D6D3F32
:105530000165F2F2D844433FA69237A0887E143F1B
:10554000735360DBCB75F3BEFE41B31BBAA1AB3F17
:1055500093846EE9E326823F1583E0FEC8DB573F64
:1055600068108D1AF726303FE9A7F0320FB8123FC6
:10557000D47ABF74702AFB3E02400000000000A0F5
:105580000000000005400000000000C8000000000E
:105590000C4000000000409C00000000194000008A
:1055A0000020BCBE0000000034400000BFC91B8EBC
:1055B00000000004B5400000504BCFD06607E2CF9A
:1055C000010000006C4100003E8251AADFEEA734CA
:1055D00001000000D9420000DCB5A0E23A301F977C
:1055E000FFFFFFFFB4450000FD25A0C8E9A3C14FA0
:1055F000FFFFFFFFFF3F00000000008000000000F1
:10560000FF3F00000000008000000000485600003E
:10561000000000102C01000008010000AC56000042
:105620002C0100105C070000640100001C00000059
:1056300043000000F8FFFFFF0C0000000E00000018
:105640000F0000002E00000014C0C62D1AFF01C17B
:1056500029106914F20145616D616E3237323832BA
:1056600039322F323432353236322A323132323216
:1056700033322D32623230323D322B32733263326A
:10568000743228325E3272326CB229293841326665
:105690003268327A2A6F4C00106431323334353636
:0C56A000373839414243444546000000C1
:04000005000000CD2A
:00000001FF
